{
  "_format": "hh-sol-artifact-1",
  "contractName": "GrowLimitlessCoin",
  "sourceName": "contracts/GrowLimitlessCoin.sol",
  "abi": [
    {
      "anonymous": false,
      "inputs": [
        {
          "indexed": true,
          "internalType": "address",
          "name": "owner",
          "type": "address"
        },
        {
          "indexed": true,
          "internalType": "address",
          "name": "spender",
          "type": "address"
        },
        {
          "indexed": false,
          "internalType": "uint256",
          "name": "value",
          "type": "uint256"
        }
      ],
      "name": "Approval",
      "type": "event"
    },
    {
      "anonymous": false,
      "inputs": [
        {
          "indexed": false,
          "internalType": "uint8",
          "name": "version",
          "type": "uint8"
        }
      ],
      "name": "Initialized",
      "type": "event"
    },
    {
      "anonymous": false,
      "inputs": [
        {
          "indexed": true,
          "internalType": "address",
          "name": "previousOwner",
          "type": "address"
        },
        {
          "indexed": true,
          "internalType": "address",
          "name": "newOwner",
          "type": "address"
        }
      ],
      "name": "OwnershipTransferred",
      "type": "event"
    },
    {
      "anonymous": false,
      "inputs": [
        {
          "indexed": true,
          "internalType": "address",
          "name": "from",
          "type": "address"
        },
        {
          "indexed": true,
          "internalType": "address",
          "name": "to",
          "type": "address"
        },
        {
          "indexed": false,
          "internalType": "uint256",
          "name": "value",
          "type": "uint256"
        }
      ],
      "name": "Transfer",
      "type": "event"
    },
    {
      "inputs": [
        {
          "internalType": "address",
          "name": "owner",
          "type": "address"
        },
        {
          "internalType": "address",
          "name": "spender",
          "type": "address"
        }
      ],
      "name": "allowance",
      "outputs": [
        {
          "internalType": "uint256",
          "name": "",
          "type": "uint256"
        }
      ],
      "stateMutability": "view",
      "type": "function"
    },
    {
      "inputs": [
        {
          "internalType": "address",
          "name": "spender",
          "type": "address"
        },
        {
          "internalType": "uint256",
          "name": "amount",
          "type": "uint256"
        }
      ],
      "name": "approve",
      "outputs": [
        {
          "internalType": "bool",
          "name": "",
          "type": "bool"
        }
      ],
      "stateMutability": "nonpayable",
      "type": "function"
    },
    {
      "inputs": [
        {
          "internalType": "address",
          "name": "account",
          "type": "address"
        }
      ],
      "name": "balanceOf",
      "outputs": [
        {
          "internalType": "uint256",
          "name": "",
          "type": "uint256"
        }
      ],
      "stateMutability": "view",
      "type": "function"
    },
    {
      "inputs": [
        {
          "internalType": "address",
          "name": "account",
          "type": "address"
        },
        {
          "internalType": "uint256",
          "name": "amount",
          "type": "uint256"
        }
      ],
      "name": "burn",
      "outputs": [],
      "stateMutability": "payable",
      "type": "function"
    },
    {
      "inputs": [],
      "name": "companyWallet",
      "outputs": [
        {
          "internalType": "address payable",
          "name": "",
          "type": "address"
        }
      ],
      "stateMutability": "view",
      "type": "function"
    },
    {
      "inputs": [],
      "name": "decimals",
      "outputs": [
        {
          "internalType": "uint8",
          "name": "",
          "type": "uint8"
        }
      ],
      "stateMutability": "view",
      "type": "function"
    },
    {
      "inputs": [
        {
          "internalType": "address",
          "name": "spender",
          "type": "address"
        },
        {
          "internalType": "uint256",
          "name": "subtractedValue",
          "type": "uint256"
        }
      ],
      "name": "decreaseAllowance",
      "outputs": [
        {
          "internalType": "bool",
          "name": "",
          "type": "bool"
        }
      ],
      "stateMutability": "nonpayable",
      "type": "function"
    },
    {
      "inputs": [
        {
          "internalType": "address",
          "name": "spender",
          "type": "address"
        },
        {
          "internalType": "uint256",
          "name": "addedValue",
          "type": "uint256"
        }
      ],
      "name": "increaseAllowance",
      "outputs": [
        {
          "internalType": "bool",
          "name": "",
          "type": "bool"
        }
      ],
      "stateMutability": "nonpayable",
      "type": "function"
    },
    {
      "inputs": [],
      "name": "initialize",
      "outputs": [],
      "stateMutability": "nonpayable",
      "type": "function"
    },
    {
      "inputs": [
        {
          "internalType": "address payable",
          "name": "addr",
          "type": "address"
        },
        {
          "internalType": "uint256",
          "name": "amount",
          "type": "uint256"
        }
      ],
      "name": "mint",
      "outputs": [],
      "stateMutability": "payable",
      "type": "function"
    },
    {
      "inputs": [],
      "name": "name",
      "outputs": [
        {
          "internalType": "string",
          "name": "",
          "type": "string"
        }
      ],
      "stateMutability": "view",
      "type": "function"
    },
    {
      "inputs": [],
      "name": "owner",
      "outputs": [
        {
          "internalType": "address",
          "name": "",
          "type": "address"
        }
      ],
      "stateMutability": "view",
      "type": "function"
    },
    {
      "inputs": [],
      "name": "renounceOwnership",
      "outputs": [],
      "stateMutability": "nonpayable",
      "type": "function"
    },
    {
      "inputs": [],
      "name": "symbol",
      "outputs": [
        {
          "internalType": "string",
          "name": "",
          "type": "string"
        }
      ],
      "stateMutability": "view",
      "type": "function"
    },
    {
      "inputs": [],
      "name": "totalSupply",
      "outputs": [
        {
          "internalType": "uint256",
          "name": "",
          "type": "uint256"
        }
      ],
      "stateMutability": "view",
      "type": "function"
    },
    {
      "inputs": [
        {
          "internalType": "address",
          "name": "to",
          "type": "address"
        },
        {
          "internalType": "uint256",
          "name": "amount",
          "type": "uint256"
        }
      ],
      "name": "transfer",
      "outputs": [
        {
          "internalType": "bool",
          "name": "",
          "type": "bool"
        }
      ],
      "stateMutability": "nonpayable",
      "type": "function"
    },
    {
      "inputs": [
        {
          "internalType": "address",
          "name": "from",
          "type": "address"
        },
        {
          "internalType": "address",
          "name": "to",
          "type": "address"
        },
        {
          "internalType": "uint256",
          "name": "amount",
          "type": "uint256"
        }
      ],
      "name": "transferFrom",
      "outputs": [
        {
          "internalType": "bool",
          "name": "",
          "type": "bool"
        }
      ],
      "stateMutability": "nonpayable",
      "type": "function"
    },
    {
      "inputs": [
        {
          "internalType": "address",
          "name": "newOwner",
          "type": "address"
        }
      ],
      "name": "transferOwnership",
      "outputs": [],
      "stateMutability": "nonpayable",
      "type": "function"
    }
  ],
  "bytecode": "0x608060405234801561001057600080fd5b5061269f806100206000396000f3fe6080604052600436106101095760003560e01c8063715018a6116100955780639dc29fac116100645780639dc29fac1461034e578063a457c2d71461036a578063a9059cbb146103a7578063dd62ed3e146103e4578063f2fde38b1461042157610109565b8063715018a6146102ca5780638129fc1c146102e15780638da5cb5b146102f857806395d89b411461032357610109565b806323b872dd116100dc57806323b872dd146101cc578063313ce56714610209578063395093511461023457806340c10f191461027157806370a082311461028d57610109565b806306fdde031461010e578063095ea7b31461013957806318160ddd146101765780631ec32d15146101a1575b600080fd5b34801561011a57600080fd5b5061012361044a565b6040516101309190611df0565b60405180910390f35b34801561014557600080fd5b50610160600480360381019061015b9190611aa8565b6104dc565b60405161016d9190611dba565b60405180910390f35b34801561018257600080fd5b5061018b6104ff565b6040516101989190611ff2565b60405180910390f35b3480156101ad57600080fd5b506101b6610509565b6040516101c39190611d9f565b60405180910390f35b3480156101d857600080fd5b506101f360048036038101906101ee9190611a59565b61052f565b6040516102009190611dba565b60405180910390f35b34801561021557600080fd5b5061021e61055e565b60405161022b919061200d565b60405180910390f35b34801561024057600080fd5b5061025b60048036038101906102569190611aa8565b610567565b6040516102689190611dba565b60405180910390f35b61028b600480360381019061028691906119e1565b61059e565b005b34801561029957600080fd5b506102b460048036038101906102af91906119b8565b61067e565b6040516102c19190611ff2565b60405180910390f35b3480156102d657600080fd5b506102df6106c7565b005b3480156102ed57600080fd5b506102f661074f565b005b34801561030457600080fd5b5061030d6108d7565b60405161031a9190611d84565b60405180910390f35b34801561032f57600080fd5b50610338610901565b6040516103459190611df0565b60405180910390f35b61036860048036038101906103639190611aa8565b610993565b005b34801561037657600080fd5b50610391600480360381019061038c9190611aa8565b610a73565b60405161039e9190611dba565b60405180910390f35b3480156103b357600080fd5b506103ce60048036038101906103c99190611aa8565b610aea565b6040516103db9190611dba565b60405180910390f35b3480156103f057600080fd5b5061040b60048036038101906104069190611a1d565b610b0d565b6040516104189190611ff2565b60405180910390f35b34801561042d57600080fd5b50610448600480360381019061044391906119b8565b610b94565b005b6060603680546104599061217a565b80601f01602080910402602001604051908101604052809291908181526020018280546104859061217a565b80156104d25780601f106104a7576101008083540402835291602001916104d2565b820191906000526020600020905b8154815290600101906020018083116104b557829003601f168201915b5050505050905090565b6000806104e7610c8c565b90506104f4818585610c94565b600191505092915050565b6000603554905090565b60c960009054906101000a900473ffffffffffffffffffffffffffffffffffffffff1681565b60008061053a610c8c565b9050610547858285610e5f565b610552858585610eeb565b60019150509392505050565b60006012905090565b600080610572610c8c565b90506105938185856105848589610b0d565b61058e9190612044565b610c94565b600191505092915050565b6105a6610c8c565b73ffffffffffffffffffffffffffffffffffffffff166105c46108d7565b73ffffffffffffffffffffffffffffffffffffffff161461061a576040517f08c379a000000000000000000000000000000000000000000000000000000000815260040161061190611ef2565b60405180910390fd5b60026065541415610660576040517f08c379a000000000000000000000000000000000000000000000000000000000815260040161065790611f92565b60405180910390fd5b6002606581905550610672828261116f565b60016065819055505050565b6000603360008373ffffffffffffffffffffffffffffffffffffffff1673ffffffffffffffffffffffffffffffffffffffff168152602001908152602001600020549050919050565b6106cf610c8c565b73ffffffffffffffffffffffffffffffffffffffff166106ed6108d7565b73ffffffffffffffffffffffffffffffffffffffff1614610743576040517f08c379a000000000000000000000000000000000000000000000000000000000815260040161073a90611ef2565b60405180910390fd5b61074d60006112d0565b565b600061075b6001611396565b9050801561077f576001600060016101000a81548160ff0219169083151502179055505b6107f36040518060400160405280600d81526020017f47726f774c696d69746c657373000000000000000000000000000000000000008152506040518060400160405280600381526020017f474c4c0000000000000000000000000000000000000000000000000000000000815250611486565b6107fb6114e3565b61080361153c565b3360c960006101000a81548173ffffffffffffffffffffffffffffffffffffffff021916908373ffffffffffffffffffffffffffffffffffffffff16021790555061087b60c960009054906101000a900473ffffffffffffffffffffffffffffffffffffffff166a084595161401484a00000061116f565b80156108d45760008060016101000a81548160ff0219169083151502179055507f7f26b83ff96e1f2b6a682f133852f6798a09c465da95921460cefb384740249860016040516108cb9190611dd5565b60405180910390a15b50565b6000609760009054906101000a900473ffffffffffffffffffffffffffffffffffffffff16905090565b6060603780546109109061217a565b80601f016020809104026020016040519081016040528092919081815260200182805461093c9061217a565b80156109895780601f1061095e57610100808354040283529160200191610989565b820191906000526020600020905b81548152906001019060200180831161096c57829003601f168201915b5050505050905090565b61099b610c8c565b73ffffffffffffffffffffffffffffffffffffffff166109b96108d7565b73ffffffffffffffffffffffffffffffffffffffff1614610a0f576040517f08c379a0000000000000000000000000000000000000000000000000000000008152600401610a0690611ef2565b60405180910390fd5b60026065541415610a55576040517f08c379a0000000000000000000000000000000000000000000000000000000008152600401610a4c90611f92565b60405180910390fd5b6002606581905550610a678282611595565b60016065819055505050565b600080610a7e610c8c565b90506000610a8c8286610b0d565b905083811015610ad1576040517f08c379a0000000000000000000000000000000000000000000000000000000008152600401610ac890611fb2565b60405180910390fd5b610ade8286868403610c94565b60019250505092915050565b600080610af5610c8c565b9050610b02818585610eeb565b600191505092915050565b6000603460008473ffffffffffffffffffffffffffffffffffffffff1673ffffffffffffffffffffffffffffffffffffffff16815260200190815260200160002060008373ffffffffffffffffffffffffffffffffffffffff1673ffffffffffffffffffffffffffffffffffffffff16815260200190815260200160002054905092915050565b610b9c610c8c565b73ffffffffffffffffffffffffffffffffffffffff16610bba6108d7565b73ffffffffffffffffffffffffffffffffffffffff1614610c10576040517f08c379a0000000000000000000000000000000000000000000000000000000008152600401610c0790611ef2565b60405180910390fd5b600073ffffffffffffffffffffffffffffffffffffffff168173ffffffffffffffffffffffffffffffffffffffff161415610c80576040517f08c379a0000000000000000000000000000000000000000000000000000000008152600401610c7790611e52565b60405180910390fd5b610c89816112d0565b50565b600033905090565b600073ffffffffffffffffffffffffffffffffffffffff168373ffffffffffffffffffffffffffffffffffffffff161415610d04576040517f08c379a0000000000000000000000000000000000000000000000000000000008152600401610cfb90611f52565b60405180910390fd5b600073ffffffffffffffffffffffffffffffffffffffff168273ffffffffffffffffffffffffffffffffffffffff161415610d74576040517f08c379a0000000000000000000000000000000000000000000000000000000008152600401610d6b90611e72565b60405180910390fd5b80603460008573ffffffffffffffffffffffffffffffffffffffff1673ffffffffffffffffffffffffffffffffffffffff16815260200190815260200160002060008473ffffffffffffffffffffffffffffffffffffffff1673ffffffffffffffffffffffffffffffffffffffff168152602001908152602001600020819055508173ffffffffffffffffffffffffffffffffffffffff168373ffffffffffffffffffffffffffffffffffffffff167f8c5be1e5ebec7d5bd14f71427d1e84f3dd0314c0f7b2291e5b200ac8c7c3b92583604051610e529190611ff2565b60405180910390a3505050565b6000610e6b8484610b0d565b90507fffffffffffffffffffffffffffffffffffffffffffffffffffffffffffffffff8114610ee55781811015610ed7576040517f08c379a0000000000000000000000000000000000000000000000000000000008152600401610ece90611e92565b60405180910390fd5b610ee48484848403610c94565b5b50505050565b600073ffffffffffffffffffffffffffffffffffffffff168373ffffffffffffffffffffffffffffffffffffffff161415610f5b576040517f08c379a0000000000000000000000000000000000000000000000000000000008152600401610f5290611f32565b60405180910390fd5b600073ffffffffffffffffffffffffffffffffffffffff168273ffffffffffffffffffffffffffffffffffffffff161415610fcb576040517f08c379a0000000000000000000000000000000000000000000000000000000008152600401610fc290611e12565b60405180910390fd5b610fd683838361176e565b6000603360008573ffffffffffffffffffffffffffffffffffffffff1673ffffffffffffffffffffffffffffffffffffffff1681526020019081526020016000205490508181101561105d576040517f08c379a000000000000000000000000000000000000000000000000000000000815260040161105490611eb2565b60405180910390fd5b818103603360008673ffffffffffffffffffffffffffffffffffffffff1673ffffffffffffffffffffffffffffffffffffffff1681526020019081526020016000208190555081603360008573ffffffffffffffffffffffffffffffffffffffff1673ffffffffffffffffffffffffffffffffffffffff16815260200190815260200160002060008282546110f29190612044565b925050819055508273ffffffffffffffffffffffffffffffffffffffff168473ffffffffffffffffffffffffffffffffffffffff167fddf252ad1be2c89b69c2b068fc378daa952ba7f163c4a11628f55a4df523b3ef846040516111569190611ff2565b60405180910390a3611169848484611773565b50505050565b600073ffffffffffffffffffffffffffffffffffffffff168273ffffffffffffffffffffffffffffffffffffffff1614156111df576040517f08c379a00000000000000000000000000000000000000000000000000000000081526004016111d690611fd2565b60405180910390fd5b6111eb6000838361176e565b80603560008282546111fd9190612044565b9250508190555080603360008473ffffffffffffffffffffffffffffffffffffffff1673ffffffffffffffffffffffffffffffffffffffff16815260200190815260200160002060008282546112539190612044565b925050819055508173ffffffffffffffffffffffffffffffffffffffff16600073ffffffffffffffffffffffffffffffffffffffff167fddf252ad1be2c89b69c2b068fc378daa952ba7f163c4a11628f55a4df523b3ef836040516112b89190611ff2565b60405180910390a36112cc60008383611773565b5050565b6000609760009054906101000a900473ffffffffffffffffffffffffffffffffffffffff16905081609760006101000a81548173ffffffffffffffffffffffffffffffffffffffff021916908373ffffffffffffffffffffffffffffffffffffffff1602179055508173ffffffffffffffffffffffffffffffffffffffff168173ffffffffffffffffffffffffffffffffffffffff167f8be0079c531659141344cd1fd0a4f28419497f9722a3daafe3b4186f6b6457e060405160405180910390a35050565b60008060019054906101000a900460ff161561140d5760018260ff161480156113c557506113c330611778565b155b611404576040517f08c379a00000000000000000000000000000000000000000000000000000000081526004016113fb90611ed2565b60405180910390fd5b60009050611481565b8160ff1660008054906101000a900460ff1660ff1610611462576040517f08c379a000000000000000000000000000000000000000000000000000000000815260040161145990611ed2565b60405180910390fd5b816000806101000a81548160ff021916908360ff160217905550600190505b919050565b600060019054906101000a900460ff166114d5576040517f08c379a00000000000000000000000000000000000000000000000000000000081526004016114cc90611f72565b60405180910390fd5b6114df828261179b565b5050565b600060019054906101000a900460ff16611532576040517f08c379a000000000000000000000000000000000000000000000000000000000815260040161152990611f72565b60405180910390fd5b61153a61181c565b565b600060019054906101000a900460ff1661158b576040517f08c379a000000000000000000000000000000000000000000000000000000000815260040161158290611f72565b60405180910390fd5b611593611875565b565b600073ffffffffffffffffffffffffffffffffffffffff168273ffffffffffffffffffffffffffffffffffffffff161415611605576040517f08c379a00000000000000000000000000000000000000000000000000000000081526004016115fc90611f12565b60405180910390fd5b6116118260008361176e565b6000603360008473ffffffffffffffffffffffffffffffffffffffff1673ffffffffffffffffffffffffffffffffffffffff16815260200190815260200160002054905081811015611698576040517f08c379a000000000000000000000000000000000000000000000000000000000815260040161168f90611e32565b60405180910390fd5b818103603360008573ffffffffffffffffffffffffffffffffffffffff1673ffffffffffffffffffffffffffffffffffffffff1681526020019081526020016000208190555081603560008282546116f0919061209a565b92505081905550600073ffffffffffffffffffffffffffffffffffffffff168373ffffffffffffffffffffffffffffffffffffffff167fddf252ad1be2c89b69c2b068fc378daa952ba7f163c4a11628f55a4df523b3ef846040516117559190611ff2565b60405180910390a361176983600084611773565b505050565b505050565b505050565b6000808273ffffffffffffffffffffffffffffffffffffffff163b119050919050565b600060019054906101000a900460ff166117ea576040517f08c379a00000000000000000000000000000000000000000000000000000000081526004016117e190611f72565b60405180910390fd5b81603690805190602001906118009291906118d6565b5080603790805190602001906118179291906118d6565b505050565b600060019054906101000a900460ff1661186b576040517f08c379a000000000000000000000000000000000000000000000000000000000815260040161186290611f72565b60405180910390fd5b6001606581905550565b600060019054906101000a900460ff166118c4576040517f08c379a00000000000000000000000000000000000000000000000000000000081526004016118bb90611f72565b60405180910390fd5b6118d46118cf610c8c565b6112d0565b565b8280546118e29061217a565b90600052602060002090601f016020900481019282611904576000855561194b565b82601f1061191d57805160ff191683800117855561194b565b8280016001018555821561194b579182015b8281111561194a57825182559160200191906001019061192f565b5b509050611958919061195c565b5090565b5b8082111561197557600081600090555060010161195d565b5090565b60008135905061198881612624565b92915050565b60008135905061199d8161263b565b92915050565b6000813590506119b281612652565b92915050565b6000602082840312156119ca57600080fd5b60006119d884828501611979565b91505092915050565b600080604083850312156119f457600080fd5b6000611a028582860161198e565b9250506020611a13858286016119a3565b9150509250929050565b60008060408385031215611a3057600080fd5b6000611a3e85828601611979565b9250506020611a4f85828601611979565b9150509250929050565b600080600060608486031215611a6e57600080fd5b6000611a7c86828701611979565b9350506020611a8d86828701611979565b9250506040611a9e868287016119a3565b9150509250925092565b60008060408385031215611abb57600080fd5b6000611ac985828601611979565b9250506020611ada858286016119a3565b9150509250929050565b611aed816120e0565b82525050565b611afc816120ce565b82525050565b611b0b816120f2565b82525050565b611b1a81612135565b82525050565b6000611b2b82612028565b611b358185612033565b9350611b45818560208601612147565b611b4e8161220a565b840191505092915050565b6000611b66602383612033565b9150611b718261221b565b604082019050919050565b6000611b89602283612033565b9150611b948261226a565b604082019050919050565b6000611bac602683612033565b9150611bb7826122b9565b604082019050919050565b6000611bcf602283612033565b9150611bda82612308565b604082019050919050565b6000611bf2601d83612033565b9150611bfd82612357565b602082019050919050565b6000611c15602683612033565b9150611c2082612380565b604082019050919050565b6000611c38602e83612033565b9150611c43826123cf565b604082019050919050565b6000611c5b602083612033565b9150611c668261241e565b602082019050919050565b6000611c7e602183612033565b9150611c8982612447565b604082019050919050565b6000611ca1602583612033565b9150611cac82612496565b604082019050919050565b6000611cc4602483612033565b9150611ccf826124e5565b604082019050919050565b6000611ce7602b83612033565b9150611cf282612534565b604082019050919050565b6000611d0a601f83612033565b9150611d1582612583565b602082019050919050565b6000611d2d602583612033565b9150611d38826125ac565b604082019050919050565b6000611d50601f83612033565b9150611d5b826125fb565b602082019050919050565b611d6f8161211e565b82525050565b611d7e81612128565b82525050565b6000602082019050611d996000830184611af3565b92915050565b6000602082019050611db46000830184611ae4565b92915050565b6000602082019050611dcf6000830184611b02565b92915050565b6000602082019050611dea6000830184611b11565b92915050565b60006020820190508181036000830152611e0a8184611b20565b905092915050565b60006020820190508181036000830152611e2b81611b59565b9050919050565b60006020820190508181036000830152611e4b81611b7c565b9050919050565b60006020820190508181036000830152611e6b81611b9f565b9050919050565b60006020820190508181036000830152611e8b81611bc2565b9050919050565b60006020820190508181036000830152611eab81611be5565b9050919050565b60006020820190508181036000830152611ecb81611c08565b9050919050565b60006020820190508181036000830152611eeb81611c2b565b9050919050565b60006020820190508181036000830152611f0b81611c4e565b9050919050565b60006020820190508181036000830152611f2b81611c71565b9050919050565b60006020820190508181036000830152611f4b81611c94565b9050919050565b60006020820190508181036000830152611f6b81611cb7565b9050919050565b60006020820190508181036000830152611f8b81611cda565b9050919050565b60006020820190508181036000830152611fab81611cfd565b9050919050565b60006020820190508181036000830152611fcb81611d20565b9050919050565b60006020820190508181036000830152611feb81611d43565b9050919050565b60006020820190506120076000830184611d66565b92915050565b60006020820190506120226000830184611d75565b92915050565b600081519050919050565b600082825260208201905092915050565b600061204f8261211e565b915061205a8361211e565b9250827fffffffffffffffffffffffffffffffffffffffffffffffffffffffffffffffff0382111561208f5761208e6121ac565b5b828201905092915050565b60006120a58261211e565b91506120b08361211e565b9250828210156120c3576120c26121ac565b5b828203905092915050565b60006120d9826120fe565b9050919050565b60006120eb826120fe565b9050919050565b60008115159050919050565b600073ffffffffffffffffffffffffffffffffffffffff82169050919050565b6000819050919050565b600060ff82169050919050565b600061214082612128565b9050919050565b60005b8381101561216557808201518184015260208101905061214a565b83811115612174576000848401525b50505050565b6000600282049050600182168061219257607f821691505b602082108114156121a6576121a56121db565b5b50919050565b7f4e487b7100000000000000000000000000000000000000000000000000000000600052601160045260246000fd5b7f4e487b7100000000000000000000000000000000000000000000000000000000600052602260045260246000fd5b6000601f19601f8301169050919050565b7f45524332303a207472616e7366657220746f20746865207a65726f206164647260008201527f6573730000000000000000000000000000000000000000000000000000000000602082015250565b7f45524332303a206275726e20616d6f756e7420657863656564732062616c616e60008201527f6365000000000000000000000000000000000000000000000000000000000000602082015250565b7f4f776e61626c653a206e6577206f776e657220697320746865207a65726f206160008201527f6464726573730000000000000000000000000000000000000000000000000000602082015250565b7f45524332303a20617070726f766520746f20746865207a65726f20616464726560008201527f7373000000000000000000000000000000000000000000000000000000000000602082015250565b7f45524332303a20696e73756666696369656e7420616c6c6f77616e6365000000600082015250565b7f45524332303a207472616e7366657220616d6f756e742065786365656473206260008201527f616c616e63650000000000000000000000000000000000000000000000000000602082015250565b7f496e697469616c697a61626c653a20636f6e747261637420697320616c72656160008201527f647920696e697469616c697a6564000000000000000000000000000000000000602082015250565b7f4f776e61626c653a2063616c6c6572206973206e6f7420746865206f776e6572600082015250565b7f45524332303a206275726e2066726f6d20746865207a65726f2061646472657360008201527f7300000000000000000000000000000000000000000000000000000000000000602082015250565b7f45524332303a207472616e736665722066726f6d20746865207a65726f20616460008201527f6472657373000000000000000000000000000000000000000000000000000000602082015250565b7f45524332303a20617070726f76652066726f6d20746865207a65726f2061646460008201527f7265737300000000000000000000000000000000000000000000000000000000602082015250565b7f496e697469616c697a61626c653a20636f6e7472616374206973206e6f74206960008201527f6e697469616c697a696e67000000000000000000000000000000000000000000602082015250565b7f5265656e7472616e637947756172643a207265656e7472616e742063616c6c00600082015250565b7f45524332303a2064656372656173656420616c6c6f77616e63652062656c6f7760008201527f207a65726f000000000000000000000000000000000000000000000000000000602082015250565b7f45524332303a206d696e7420746f20746865207a65726f206164647265737300600082015250565b61262d816120ce565b811461263857600080fd5b50565b612644816120e0565b811461264f57600080fd5b50565b61265b8161211e565b811461266657600080fd5b5056fea2646970667358221220aa6a4baaa99581f1142ee4bfd20f14805d8a44b3ed4512d07e44e4e27d28f82064736f6c63430008020033",
  "linkReferences": {},
  "deployedLinkReferences": {}
}